:100000000C94432D0C94742D0C94742D0C94742D1D
:100010000C94742D0C94742D0C94742D0C945EE03F
:100020000C94742D0C94742D0C94742D0C94742DCC
:100030000C94742D0C94742D0C94742D0C9439F331
:100040000C94742D0C94742D0C94742D0C94742DAC
:100050000C94742D0C94742D0C94742D0C94742D9C
:100060000C94742D0C9403E10C9432E10C94742DD7
:100070000C94742D0C94742D0C94742D0C94742D7C
:100080000C94742D0C94742D0C94742D0C94742D6C
:100090000C946DE10C949CE10C94742D0C943AE555
:1000A0000C94742D0C9466F30C94742D0C94742D94
:1000B0000C94742D0C94742D0C9493F30C94742D57
:1000C0000C94742D0C94742D0C948EEB0C94D7E13D
:1000D0000C9406E20C94742D0C94742D0C94742DD5
:1000E0000C94742D462F4B2F502F552F5A2F5F2FC6
:1000F000642F692F6E2F732F782F7D2F882F822FDB
:10010000C8787578B0787E789278B078C878B0780A
:10011000C878B578197E127E207E247E457E377E93
:10012000507E307E3E7E4C7E577E5E7EE87E6A7ECE
:10013000AD8485871185C684DF84228555858587B2
:1001400043860E868587AA855D8644858587858753
:1001500066867F8698868587F884C385F58585873A
:10016000218633858587DC858587B186C286D386DF
:1001700085877785888599856685EC861C87328694
:10018000358746874688628858898A89D589278A2B
:10019000348A708AF98A398C6993A493AE938A93CE
:1001A0009493B8931294EA93E093D693F493FE93C6
:1001B0000894C293CC939C942C941C943C944694A5
:1001C0009C9450949C945A949C949C9463941396FD
:1001D00031964696C6978796A3967C969096C69734
:1001E000C697C697C697C697C697C697C697C69727
:1001F000C697C697C697C697C697C697C697B69628
:10020000C697C796DD96E296CA96FD9B0D9C169CF6
:10021000209C499D689C499DFB9C019D0A9D159DC4
:10022000139C1D9D499D319D499D3A9D44AE55AEFF
:1002300059AE60AE64AE03BD68AE03BD03BD03BD81
:100240006CAE70AE74AE0DE80DE812E812E812E87C
:1002500017E817E817E829E81CE81CE836E83AE848
:1002600040E844E848E84EE852E856E865E85CE8CB
:1002700060E86FE873E879E87DE881E887E88BE873
:100280008FE89EE895E899E8B7E8BCE8C1E8C6E8D9
:10029000CBE8D0E8D5E8DAE8E8E8DFE8E4E816E912
:1002A0001BE920E925E92AE92FE934E939E948E998
:1002B0003EE943E910F910F920F942F936F949F914
:1002C00050F960F978F9B5F9182CDA2B582BEC2C89
:1002D000442A342B342ADA2AD82BE82A662C0E2C0E
:1002E0001C2B142DD42A5A2ABC2BE62AB62A842A7F
:1002F000D22B1A2CA42C722CD22C862AB62BB22AE2
:10030000282B162B282B282B522C002B282B282B64
:10031000C82B722B4E2A282B282B282B282B282B36
:10032000282B282B282B282B282B282B542C282B08
:10033000282B282B282B282B282B282B4C2A062C23
:10034000282B162C7E2A282B0A2BEE2A282B282B2A
:10035000282B282B282C162A262CA82C462CB82BE8
:10036000EC2A7C2CAE2AE62B5C2A402B922AB02A5F
:10037000FE29D02C882AC22B902A322B842B8E2A3D
:10038000122B442B8A2C922BD62C622BEA2B122D6B
:10039000782CE02C562C1E2CBE2C702AFC29DA2C32
:1003A000602B662B602B662B602B662B602B4A2CF8
:1003B0004A2C4A2C4A2C4A2C4A2C4A2C4A2C4A2C8D
:1003C000FC2B3A2BFC2A3A2BFC2A3A2BFC2A3A2B00
:1003D000FC2A3A2BFC2A2E2D2E2D2E2DC42CC42C7B
:1003E0002E2D2E2D2E2DC42CC42CCC2CCC2CCC2C34
:1003F000202B202BCC2CCC2CCC2C202B202B502B6E
:10040000162D502B162D502B162D502B162D502BF4
:10041000242B222DCC2B922C222DCC2B922C222D36
:10042000CC2B922C582CE42CE42C582C582CE42C5B
:10043000E42C582C582C582C582C036EDB363D9A43
:100440009999993DABAAAA2A3E000000803F084A2C
:10045000D73B3BCE016E84BCBFFDC12F3D6C7431D8
:100460009ABD56833DDA3D00C77F11BED9E4BB4C2F
:100470003E916BAAAABE000000803F072C7AA5BA65
:100480006CC590DA3B9365FC8BBC53F810FD3C5671
:1004900092834DBD879D3AB63DCBC9BF5BBE73DA33
:1004A0000FC93F05A84CCDB2D44EB93836A9020CBD
:1004B00050B9918688083CA6AAAA2ABE00000080EE
:1004C0003F08000000BE922449123EABAAAA2ABEF1
:1004D000CDCCCC4C3E00000080BEABAAAAAA3E0008
:1004E000000000BF000000803F0000000000084145
:1004F00078D3BB4387D1133D190E3CC3BD4282ADB7
:100500002B3E68EC8276BED98FE1A93E4C80EFFF8E
:10051000BE01C4FF7F3F00000000000664EC1B3CEE
:1005200004BC163E3BE5B93CC93C37C29E5A3D6609
:100530000498083EEA69AAAA3E000000803F0253E0
:10054000595349445F53575F4D52455600000000D0
:10055000005A07000000000153595349445F5357A4
:100560005F5459504500000000015C070000204125
:100570000253595349445F544849534D4156000072
:100580000000705D070000803F0253595349445FEB
:100590004D59474353000000000000715F07000001
:1005A0007F430153455249414C315F42415544001C
:1005B00000000000726107000064420154454C4590
:1005C0004D5F44454C415900000000000073620734
:1005D000000000000252544C5F414C5400000000E7
:1005E000000000000000A063070080BB4401534FDF
:1005F0004E41525F454E41424C4500000000009480
:1006000065070000000001534F4E41525F5459509E
:1006100045000000000000009A660700000000048A
:10062000534F4E41525F4741494E000000000000C9
:10063000001E6707CDCC4C3F0146535F42415454E6
:100640005F454E41424C45000000C16B0700000071
:10065000000446535F424154545F564F4C54414747
:10066000450000976C07000028410446535F424153
:1006700054545F4D41480000000000002570070001
:100680000000000146535F4750535F454E41424CC6
:100690004500000000C374070000803F0146535F1F
:1006A0004743535F454E41424C4500000000C6752C
:1006B0000700000000024750535F48444F505F4717
:1006C0004F4F440000000023760700004843014DCF
:1006D00041475F454E41424C45000000000000008C
:1006E0009278070000803F01464C4F575F454E41CE
:1006F000424C450000000000009679070000000011
:100700000153555045525F53494D504C4500000030
:1007100000009B7A07000000000252544C5F414CDD
:10072000545F46494E414C00000000A37B07000087
:10073000000001525353495F50494E000000000031
:1007400000000000187D07000080BF045253534989
:100750005F52414E474500000000000000277E0721
:100760000000A0400157505F5941575F4245484142
:1007700056494F5200001A8207000040400157506E
:100780005F544F54414C000000000000000000D3B3
:100790008A07000000000157505F494E4445580049
:1007A0000000000000000000D48B070000000002E1
:1007B000434952434C455F52414449555300000060
:1007C00000D78C070000204104434952434C455F49
:1007D000524154450000000000001D8E070000A09B
:1007E000410352544C5F4C4F49545F54494D4500AE
:1007F000000000A2920700409C45024C414E445F1D
:10080000535045454400000000000000D996070001
:100810000048420250494C4F545F56454C5A5F4D78
:1008200041580000001C980700007A4302544852C7
:100830005F4D494E00000000000000000000B49A27
:100840000700000000025448525F4D41580000006C
:1008500000000000000000B59C0700007A4401463B
:10086000535F5448525F454E41424C4500000000E2
:10087000B69E07000000000246535F5448525F5680
:10088000414C55450000000000B89F0700C073446C
:10089000025452494D5F5448524F54544C45000045
:1008A0000000B9A1070000E143025448525F4D49DE
:1008B0004400000000000000000000C2A307000088
:1008C000FA4301464C544D4F4445310000000000AE
:1008D00000000000C8A5070000000001464C544D70
:1008E0004F444532000000000000000000C9A60788
:1008F0000000000001464C544D4F444533000000B9
:10090000000000000000CAA7070000000001464CDC
:10091000544D4F444534000000000000000000CB5F
:10092000A8070000000001464C544D4F44453500D7
:100930000000000000000000CCA90700000000013A
:10094000464C544D4F444536000000000000000066
:1009500000CDAA07000000000153494D504C45004E
:1009600000000000000000000000CEAB0700000007
:1009700000024C4F475F4249544D41534B00000029
:1009800000000014AC0700805F44014553430000A1
:10099000000000000000000000000000BAAE0700E8
:1009A0000000000154554E4500000000000000000A
:1009B0000000000000BBAF07000000000254554ECD
:1009C000455F4C4F57000000000000000000BDB222
:1009D00007000000000254554E455F484947480053
:1009E00000000000000000BCB00700007A4401468F
:1009F00052414D45000000000000000000000000D2
:100A000095B4070000803F014348375F4F505400C2
:100A100000000000000000000098B5070000000082
:100A2000014348385F4F50540000000000000000B0
:100A300000001FB607000000000141524D494E471B
:100A40005F434845434B000000000020B70700000B
:100A5000803F02414E474C455F4D41580000000029
:100A60000000000022830700A08C4503414E474C44
:100A7000455F524154455F4D4158000000268507AF
:100A800000A08C460152435F4645454C5F525000E2
:100A90000000000000002889070000C842084853F1
:100AA000315F000000000000000000000000005066
:100AB000B907E0410000084853325F000000000021
:100AC000000000000000000051D607E041000008CF
:100AD0004853335F000000000000000000000000E9
:100AE0000052F307E0410000084853345F00000063
:100AF00000000000000000000000531008E041006A
:100B00000004524154455F5049545F46460000007E
:100B1000000000542D080000000004524154455FBD
:100B2000524C4C5F46460000000000005531080062
:100B300000000004524154455F5941575F4646004A
:100B400000000000005635080000000002485F5316
:100B50005441425F434F4C5F4D494E0000005739AE
:100B6000080000000002485F535441425F434F4C6D
:100B70005F4D4158000000583B0800007A4408527D
:100B800043315F0000000000000000000000000092
:100B9000AA3D08E0410000085243325F0000000017
:100BA000000000000000000000AB5A08E041000017
:100BB000085243335F000000000000000000000006
:100BC0000000AC7708E0410000085243345F0000A9
:100BD0000000000000000000000000AD9408E041AB
:100BE0000000085243355F000000000000000000D4
:100BF00000000000AEB10876420000085243365FA4
:100C000000000000000000000000000000AFCF085E
:100C100076420000085243375F00000000000000E9
:100C2000000000000000B0ED0876420000085243CA
:100C3000385F00000000000000000000000000B16C
:100C40000B097642000008524331305F000000007B
:100C50000000000000000000B229097642000008F0
:100C6000524331315F00000000000000000000002E
:100C700000B34709764200000252435F5350454596
:100C800044000000000000000000C065090000FAF8
:100C900042044143524F5F52505F50000000000039
:100CA000000000DD670900009040044143524F5F9F
:100CB0005941575F5000000000000000F46B09002C
:100CC000009040044143524F5F42414C5F524F4CB1
:100CD0004C00000000F26F090000803F04414352C5
:100CE0004F5F42414C5F5049544348000000F3734A
:100CF000090000803F014143524F5F545241494E29
:100D0000455200000000001B770900000040014D23
:100D10004E545F4155544F52545243545F48000063
:100D200029B8070000C84208524154455F524C4C54
:100D30005F0000000000000000DF78096341000050
:100D400008524154455F5049545F000000000000C4
:100D50000000E092096341000008524154455F5988
:100D600041575F0000000000000000E1AC09634152
:100D70000000084C4F495445525F4C41545F0000FD
:100D800000000000E7C60963410000084C4F4954C9
:100D900045525F4C4F4E5F000000000000E8E00944
:100DA00063410000085448525F524154455F0000BF
:100DB000000000000000ECFA0963410000085448FC
:100DC000525F414343454C5F00000000000000F1CA
:100DD000140A63410000084F465F524C4C5F00000C
:100DE0000000000000000000ED2E0A634100000832
:100DF0004F465F5049545F000000000000000000B3
:100E000000EE480A63410000085354425F524C4CC4
:100E10005F000000000000000000E27E0AFF4000CA
:100E200000085354425F5049545F00000000000026
:100E3000000000E38C0AFF400000085354425F5951
:100E400041575F000000000000000000E49A0AFF24
:100E5000400000085448525F414C545F00000000BD
:100E60000000000000EBA80AFF40000008484C44C6
:100E70005F4C41545F000000000000000000E5628C
:100E80000AFF40000008484C445F4C4F4E5F000092
:100E900000000000000000E6700AFF400000084368
:100EA000414D5F0000000000000000000000000055
:100EB000A5500E0C4600000852454C41595F0000F9
:100EC0000000000000000000000DCB138F45000063
:100ED00008434F4D504153535F0000000000000095
:100EE0000000931F12743B000008494E535F00003E
:100EF0000000000000000000000000034A0CFE3C5F
:100F0000000008494E41565F00000000000000004C
:100F10000000000064C60C644800000857504E41B1
:100F2000565F000000000000000000000065AA0FEE
:100F3000AF480000085352305F000000000000007E
:100F40000000000000006E6C0E7910000008535283
:100F5000315F000000000000000000000000006F92
:100F6000090F7910000008414852535F000000004B
:100F700000000000000000009FB80AEC3F000008DD
:100F80004D4E545F00000000000000000000000013
:100F900000A6E50DA246000008424154545F00003F
:100FA00000000000000000000000246B11D452007B
:100FB00000084252445F00000000000000000000F2
:100FC0000000000FCF139C53000008474E445F0001
:100FD0000000000000000000000000000B9611114E
:100FE0003800000853434845445F000000000000FB
:100FF00000000000000C4507DD5100000846454E8A
:1010000043455F0000000000000000000000459024
:10101000062E51000008475053474C495443485F3F
:10102000000000000000004608135A340000084881
:101030005F00000000000000000000000000000051
:101040005A8B10C14200000852434D41505F0000CE
:10105000000000000000000000C7D013575200003D
:101060000000000000000000000000000000000080
:1010700000000000000000000002005241575F53D2
:10108000454E530000000000000000006600000014
:10109000000002014558545F5354415400000000C1
:1010A0000000000000680000000000020252435FE0
:1010B0004348414E000000000000000000006A00AC
:1010C0000000000002035241575F4354524C00009D
:1010D000000000000000006C00000000000204504E
:1010E0004F534954494F4E000000000000000000DB
:1010F0006E000000000002054558545241310000C6
:10110000000000000000000000700000000000026D
:101110000645585452413200000000000000000013
:10112000000072000000000002074558545241338D
:10113000000000000000000000000074000000003B
:10114000000208504152414D5300000000000000D1
:101150000000000076000000000000FF000000001A
:10116000000000000000000000000000000000007F
:10117000000000AF730200C201A2A30200840314A6
:101180004801009001D6A20A00D0024D9D0A00320B
:101190000014AD0A000A007E3F0A008C0085360A62
:1011A00000E80359950A0020030D8421005A001617
:1011B000380200A401772D0200FA00C0400200644A
:1011C000000C3F02006400F3AB6400A401A79D0A79
:1011D0000014006EBE020026029E99640096009BD9
:1011E000990200D002819A0200B603043F0200C2B5
:1011F00001EC3E0A002C0104480200DC00DB76E82A
:1012000003C80035430A003200DF75020064005055
:101210004552463A2025752F257520256C750A0004
:1012200050726541726D3A205243206E6F74206394
:10123000616C696272617465640050726541726DBF
:101240003A204261726F206E6F74206865616C7421
:1012500068790050726541726D3A20416C74206467
:1012600069737061726974790050726541726D3A88
:1012700020436F6D70617373206E6F7420686561B9
:101280006C7468790050726541726D3A20436F6DDD
:1012900070617373206E6F742063616C6962726138
:1012A0007465640050726541726D3A20436F6D70D1
:1012B000617373206F66667365747320746F6F203B
:1012C000686967680050726541726D3A20436865CD
:1012D000636B206D6167206669656C6400507265A0
:1012E00041726D3A20494E53206E6F742063616CD9
:1012F000696272617465640050726541726D3A2072
:10130000494E53206E6F74206865616C7468790073
:1013100050726541726D3A20436865636B20426F7D
:1013200061726420566F6C7461676500507265412C
:10133000726D3A2043683726436838204F70742016
:1013400063616E6E6F742062652073616D6500501D
:10135000726541726D3A20436865636B2046535F46
:101360005448525F56414C55450050726541726D6C
:101370003A20436865636B20414E474C455F4D41C1
:10138000580050726541726D3A204143524F5F429E
:10139000414C5F524F4C4C2F5049544348005072BF
:1013A0006541726D3A204261642047505320506F6E
:1013B000730050726541726D3A2048696768204732
:1013C00050532048444F5000526561636865642063
:1013D000436F6D6D616E64202325690041726475F1
:1013E000436F707465722056332E312E350047528C
:1013F0004F554E4420535441525400494E530A0015
:101400002D00475F6F66663A2025342E32662C2009
:1014100025342E32662C2025342E32660A00415F98
:101420006F66663A2025342E32662C2025342E3203
:10143000662C2025342E32660A415F7363616C6529
:101440003A2025342E32662C2025342E32662C206C
:1014500025342E32660A0043616C696272617469D8
:101460006E67206261726F6D657465720062617291
:101470006F6D657465722063616C69627261746915
:101480006F6E20636F6D706C6574650041726D3AAC
:1014900020416C74206469737061726974790041D1
:1014A000726D3A205468722062656C6F77204653E3
:1014B0000041726D3A204C65616E696E6700417241
:1014C0006D3A205361666574792053776974636857
:1014D000005472696D207361766564004C6F7720EB
:1014E0004261747465727921004C6F7374204750A7
:1014F0005321000A0A496E69742041726475436F72
:10150000707465722056332E312E350A0A46726584
:10151000652052414D3A2025750A008059464D54A8
:10152000000042426E4E5A00000000000000000021
:101530000000547970652C4C656E6774682C4E61A0
:101540006D652C466F726D61740000000000000034
:10155000000000000000000000000000000000008B
:10156000000000000000000000000000000000007B
:10157000000081175041524D004E660000000000EF
:101580000000000000000000004E616D652C5661F7
:101590006C75650000000000000000000000000005
:1015A000000000000000000000000000000000003B
:1015B000000000000000000000000000000000002B
:1015C000000000000000000000822D475053000082
:1015D00042494842634C4C656545656649000000D8
:1015E0005374617475732C54696D654D532C576534
:1015F000656B2C4E536174732C48446F702C4C6196
:10160000742C4C6E672C52656C416C742C416C745C
:101610002C5370642C474372732C565A2C54000080
:10162000831F494D55000049666666666666000080
:101630000000000000000054696D654D532C47798F
:1016400072582C477972592C4779725A2C4163632E
:10165000582C416363592C4163635A000000000019
:10166000000000000000000000000000000000007A
:1016700000000000000000871F494D5532004966F8
:10168000666666666600000000000000000054699F
:101690006D654D532C477972582C477972592C47F8
:1016A00079725A2C416363582C416363592C41630E
:1016B000635A00000000000000000000000000006D
:1016C0000000000000000000000000000000844353
:1016D0004D534700005A00000000000000000000C9
:1016E00000000000004D6573736167650000000035
:1016F00000000000000000000000000000000000EA
:1017000000000000000000000000000000000000D9
:1017100000000000000000000000000000000000C9
:10172000000000000085175243494E004968686870
:1017300068686868680000000000000054696D6512
:101740004D532C4368616E312C4368616E322C43DB
:1017500068616E332C4368616E342C4368616E356A
:101760002C4368616E362C4368616E372C43686188
:101770006E38000000000000000000008617524391
:101780004F5500496868686868686868000000002C
:1017900000000054696D654D532C4368616E312C17
:1017A0004368616E322C4368616E332C4368616E0E
:1017B000342C4368616E352C4368616E362C436867
:1017C000616E372C4368616E380000000000000035
:1017D00000000088114241524F00496666630000D4
:1017E0000000000000000000000054696D654D53CA
:1017F0002C416C742C50726573732C54656D7000A1
:1018000000000000000000000000000000000000D8
:1018100000000000000000000000000000000000C8
:10182000000000000000000000000917435552525C
:101830000049684968686866000000000000000010
:101840000054696D654D532C5468724F75742C5457
:101850006872496E742C566F6C742C437572722CBE
:101860005663632C43757272546F7400000000005D
:101870000000000000000000000000000000000068
:10188000000C144F46000000686842636365650001
:10189000000000000000000044782C44792C5351D3
:1018A00075616C2C582C592C526F6C6C2C506974CF
:1018B000636800000000000000000000000000005D
:1018C0000000000000000000000000000000000018
:1018D0000000000000000000052F4E54554E004946
:1018E00066666666666666666666000000000054A8
:1018F000696D654D532C44506F73582C44506F7371
:10190000592C506F73582C506F73592C4456656C7A
:10191000582C4456656C592C56656C582C56656C81
:10192000592C44416363582C4441636359000004BB
:10193000214354554E00496868686666656363686C
:1019400068000000000054696D654D532C546872A6
:10195000496E2C416E674273742C5468724F7574D3
:101960002C44416C742C416C742C426172416C7437
:101970002C4453416C742C53416C742C444352746A
:101980002C43527400000F194D414700004968680C
:101990006868686868686800000000000054696D45
:1019A000654D532C4D6167582C4D6167592C4D6125
:1019B000675A2C4F6673582C4F6673592C4F6673B9
:1019C0005A2C4D4F6673582C4D4F6673592C4D4F02
:1019D00066735A000000000000000000001B194D53
:1019E000414732004968686868686868686800004C
:1019F0000000000054696D654D532C4D6167582CF3
:101A00004D6167592C4D61675A2C4F6673582C4FA6
:101A10006673592C4F66735A2C4D4F6673582C4D74
:101A20004F6673592C4D4F66735A0000000000003A
:101A3000000000000613504D000000424248484993
:101A4000684248420000000000000052656E436E8C
:101A5000742C52656E426C772C4E4C6F6E2C4E4C33
:101A60006F6F702C4D6178542C504D542C4932437B
:101A70004572722C494E534572722C494E4156455F
:101A800072720000000000000000000814434D4482
:101A900000004242424242654C4C000000000000FF
:101AA000000043546F742C434E756D2C4349642CD5
:101AB000434F70742C50726D312C416C742C4C61FE
:101AC000742C4C6E67000000000000000000000055
:101AD0000000000000000000000000000000000006
:101AE000000001134154540000496363636343439E
:101AF00000000000000000000054696D654D532C8B
:101B0000446573526F6C6C2C526F6C6C2C44657313
:101B100050697463682C50697463682C4465735908
:101B200061772C5961770000000000000000000080
:101B300000000000000000000003064D4F44450077
:101B40004D680000000000000000000000000000E0
:101B50004D6F64652C54687243727300000000007E
:101B60000000000000000000000000000000000075
:101B70000000000000000000000000000000000065
:101B80000000000000000000000000000000000055
:101B90000A035354525400000000000000000000EB
:101BA0000000000000000000000000000000000035
:101BB0000000000000000000000000000000000025
:101BC0000000000000000000000000000000000015
:101BD0000000000000000000000000000000000005
:101BE000000000000000000D044556000000420007
:101BF0000000000000000000000000000000496438
:101C000000000000000000000000000000000000D4
:101C100000000000000000000000000000000000C4
:101C200000000000000000000000000000000000B4
:101C3000000000000000000000000000000014068A
:101C4000443136000042680000000000000000003F
:101C5000000000000049642C56616C7565000000AE
:101C60000000000000000000000000000000000074
:101C70000000000000000000000000000000000064
:101C80000000000000000000000000000000000054
:101C9000000000000015064455313600424800009F
:101CA00000000000000000000000000049642C5605
:101CB000616C75650000000000000000000000007D
:101CC0000000000000000000000000000000000014
:101CD0000000000000000000000000000000000004
:101CE000000000000000000000000000160844335F
:101CF0003200004269000000000000000000000007
:101D000000000049642C56616C75650000000000FD
:101D100000000000000000000000000000000000C3
:101D200000000000000000000000000000000000B3
:101D300000000000000000000000000000000000A3
:101D400000000017084455333200424900000000EB
:101D50000000000000000000000049642C56616C87
:101D60007565000000000000000000000000000099
:101D70000000000000000000000000000000000063
:101D80000000000000000000000000000000000053
:101D900000000000000000000000180844464C54F9
:101DA000004266000000000000000000000000008B
:101DB0000049642C56616C7565000000000000004D
:101DC0000000000000000000000000000000000013
:101DD0000000000000000000000000000000000003
:101DE00000000000000000000000000000000000F3
:101DF00000121B43414D000049484C4C656363434E
:101E0000000000000000000047505354696D652C2D
:101E10004750535765656B2C4C61742C4C6E672C86
:101E2000416C742C526F6C6C2C50697463682C5923
:101E300061770000000000000000000000000000CA
:101E4000000000000000000013054552520000424F
:101E500042000000000000000000000000000053ED
:101E600075627379732C45436F6465000000000050
:101E70000000000000000000000000000000000062
:101E80000000000000000000000000000000000052
:101E90000000000000000000000000000000004EF4
:101EA0006F2064617461666C61736820696E73652C
:101EB000727465640045524153494E47204C4F4768
:101EC00053000A507265737320454E5445522033B7
:101ED0002074696D657320746F207374617274204F
:101EE000696E746572616374697665207365747573
:101EF000700A000A526561647920746F20464C595B
:101F00002000496E697469616C6973696E6720416C
:101F1000504D2E2E2E004657205665723A202564CD
:101F20000A004669726D77617265206368616E6749
:101F3000653A2065726173696E6720454550524F5E
:101F40004D2E2E2E0A00646F6E652E008D0001004E
:101F5000424154545F4D4F4E49544F5200000000CF
:101F600000A8000100424154545F564F4C545F504A
:101F7000494E00000000A9000100424154545F4353
:101F80005552525F50494E000000008E000400423E
:101F90004154545F564F4C545F4D554C5400000013
:101FA0008F000400424154545F414D505F504552F0
:101FB000564F4C540091000300424154545F43413A
:101FC000504143495459000000006C6F61645F61E7
:101FD0006C6C20746F6F6B20256C7575730A0045EF
:101FE000726173696E67206C6F67730A004C6F676C
:101FF00020657261736520636F6D706C6574650A2E
:1020000000456E746572696E6720455343204361D5
:102010006C6962726174696F6E3A20706C6561738D
:102020006520726573746172742041504D2E0A00F0
:102030004553432043616C6962726174696F6E201D
:102040006163746976653A2070617373696E6720A5
:102050007468726F74746C65207468726F756768E9
:1020600020746F20455343732E0A00434F4D504157
:10207000535320494E4954204552524F5200466115
:10208000696C656420746F20496E6974204F7074A8
:10209000466C6F770A00636F6D6D616E64207265C8
:1020A0006365697665643A200041726475436F70B8
:1020B0007465722056332E312E3500556E6B6E6F5F
:1020C000776E20706172616D6574657220696E64EF
:1020D000657820256400556E6B6E6F776E20706199
:1020E00072616D6574657220252E31367300666CE1
:1020F0006967687420706C616E20757064617465C6
:102100002072656A656374656400666C69676874EB
:1021100020706C616E20726563656976656400434A
:10212000726173683A2044697361726D696E670009
:102130004F7074466C6F770A00656E0064697300B7
:1021400061626C65640A004C6F670064756D7000B5
:102150000000000000000000006F386572617365C8
:10216000000000000000000000CF9B656E61626C03
:102170006500000000000000004B4C646973616260
:102180006C65000000000000004B4C7365747570B6
:1021900000616363656C00000000000000000066E1
:1021A0005C636F6D7061737300000000000000934A
:1021B00059636F6D706173736D6F7400000000314F
:1021C0009F657261736500000000000000000088D8
:1021D0002E6D6F6465730000000000000000005E5B
:1021E000826F7074666C6F7700000000000000AEB4
:1021F00091726164696F000000000000000000310E
:102200008172616E6765000000000000000000B58B
:102210004B726573657400000000000000000075DB
:102220004073657400000000000000000000000A18
:102230004D73686F7700000000000000000000EBA5
:1022400091736F6E617200000000000000000030AA
:102250004B41726475436F707465722056332E3132
:102260002E35006C6F677300000000000000000056
:10227000008737736574757000000000000000006F
:10228000008D3774657374000000000000000000CA
:102290000081377265626F6F7400000000000000FB
:1022A00000092F68656C700000000000000000004D
:1022B00000F22E74657374006261726F000000009A
:1022C0000000000000003F9B636F6D70617373003E
:1022D000000000000000CC5A67707300000000008E
:1022E0000000000000002534696E7300000000004B
:1022F000000000000000F0596C6F6767696E6700AE
:102300000000000000000E346D6F746F72730000E7
:102310000000000000007E8F6D6F746F7273796E25
:10232000630000000000D88F6F7074666C6F7700D8
:10233000000000000000024270776D000000000005
:10234000000000000000C280726164696F0000003C
:10235000000000000000598072656C617900000087
:10236000000000000000A030736F6E61720000007A
:102370000000000000009C41536F6E617220646990
:102380007361626C65640A00536F6E61723A202556
:102390006420636D0A0048697420456E746572207C
:1023A000746F20657869742E0A0A0052656C617931
:1023B000206F6E0A0052656C6179206F66660A00B4
:1023C000494E2020313A20256409323A20256409FB
:1023D000333A20256409343A20256409353A20250A
:1023E0006409363A20256409373A2025640A0049F1
:1023F0004E3A20313A20256409323A2025640933C7
:102400003A20256409343A20256409353A202564A8
:1024100009363A20256409373A20256409383A20DC
:1024200025640A004F7074466C6F773A20006D6126
:102430006E2069643A202564090064783A256409AD
:102440002064793A25640920737175616C3A2564BA
:102450000A00726164696F206E6F742063616C6939
:102460006272617465640A00546869732073656EF2
:1024700064732073756464656E206F757470757411
:102480007320746F20746865206D6F746F72732091
:102490006261736564206F6E207468652070696C7A
:1024A0006F742773207468726F74746C6520746F16
:1024B000207465737420666F7220455343206C6FDF
:1024C0007373206F662073796E632E204D6F746F67
:1024D00072732077696C6C207370696E20736F2043
:1024E0006D6F756E742070726F70732075702D73C0
:1024F0006964652D646F776E210A202020486F6C17
:1025000064207468726F74746C65206C6F772C2013
:102510007468656E207261697365207468726F7487
:10252000746C6520737469636B20746F20646573C9
:1025300069726564206C6576656C20616E642070DC
:102540007265737320412E20204D6F746F7273205B
:1025500077696C6C207370696E20666F7220322010
:1025600073656320616E64207468656E20726574A3
:1025700075726E20746F206C6F772E0A50726573BF
:102580007320616E79206B657920746F206578699E
:10259000742E0A007468726F74746C65206E6F74A8
:1025A000207A65726F0A000A5468723A2564000A3C
:1025B0005370696E206D6F746F72732061743A2569
:1025C00064000A4D6F746F72732073746F7070655E
:1025D00064000A5465737420636F6D706C65746574
:1025E0000A00436F6E6E6563742062617474657275
:1025F0007920666F72207468697320746573742E15
:102600000A4D6F746F72732077696C6C20737069F8
:102610006E206279206672616D6520706F736974D7
:10262000696F6E206F726465722E0A46726F6E74E7
:10263000202826207269676874206F662063656EA3
:102640007465726C696E6529206D6F746F72206697
:10265000697273742C207468656E20696E20636CD7
:102660006F636B77697365206F7264657220617246
:102670006F756E64206672616D652E0A52656D65B8
:102680006D62657220746F20646973636F6E6E652E
:102690006374206261747465727920616674657216
:1026A000207468697320746573742E0A416E7920F2
:1026B0006B657920746F20657869742E0A00546503
:1026C0007374696E672064617461666C61736820FD
:1026D0006C6F6767696E6700494E530A002E2E2E95
:1026E000646F6E650A00612025372E346620253719
:1026F0002E34662025372E346620672025372E3469
:10270000662025372E34662025372E346620742027
:1027100025372E3466200A004C61743A20002C20A4
:102720004C6F6E20002C20416C743A20256C646D37
:102730002C2023736174733A2025640A002E004311
:102740006F6D706173733A2000436F6D70617373C6
:1027500020696E697469616C69736174696F6E2058
:102760006661696C6564210048656164696E673AF9
:1027700020256C642C2058595A3A20252E30662C7E
:1027800020252E30662C20252E30662C0958595ACB
:102790006F66663A2025362E32662C2025362E327C
:1027A000662C2025362E32660A00636F6D706173C9
:1027B00073206E6F74206865616C74687900736152
:1027C00076696E67206F66667365747300436F6D1C
:1027D000706173730A004D6167204465633A202578
:1027E000342E34660A004D6167206F66663A2025F4
:1027F000342E34662C2025342E34662C2025342E9D
:1028000034660A004D6F746F7220436F6D703A200A
:10281000004F66660A005468726F74746C650043FA
:10282000757272656E74000A436F6D702056656331
:102830003A2025342E32662C2025342E32662C2068
:1028400025342E32660A006E6F74206865616C74E0
:10285000687900416C743A2025302E32666D2C2048
:102860005261773A2025662054656D7065726174F7
:102870007572653A20252E31660A006C6F677320E9
:10288000656E61626C65643A20006E6F6E65002053
:1028900041545449545544455F46415354002041E6
:1028A000545449545544455F4D45440020475053C6
:1028B0000020504D00204354554E00204E54554E9C
:1028C00000205243494E0020494D550020434D44BD
:1028D000002043555252454E54002052434F555408
:1028E00000204F5054464C4F570020434F4D50410D
:1028F0005353002043414D45524100436F6D6D617C
:102900006E64733A0A20206C6F67730A2020736527
:102910007475700A2020746573740A2020726562D1
:102920006F6F740A0A006F6E006F6666000A4F7060
:102930003A5B6F6E2C206F66662C20302D335D0A5B
:1029400000536F6E61720A00547970653A202564F5
:102950002028303D584C2C20313D4C562C20323D07
:10296000584C4C2C20333D48524C56290050617233
:10297000616D65746572206E6F7420666F756E642C
:102980003A20272573270A00526164696F0A0043C1
:1029900048313A202564207C2025640A00434832CF
:1029A0003A202564207C2025640A004348333A20DD
:1029B0002564207C2025640A004348343A2025649D
:1029C000207C2025640A004348353A202564207C79
:1029D0002025640A004348363A202564207C2025BF
:1029E000640A004348373A202564207C2025640A85
:1029F000004348383A202564207C2025640A00469C
:102A000072616D650A0048656C69206672616D656A
:102A10000A000A42617474204D6F6E3A0A00766FA4
:102A20006C747300766F6C747320616E64206375D0
:102A30007200466C69676874206D6F6465730A0084
:102A4000506F732025643A09002C090953696D7091
:102A50006C653A20004F46460A0053544142494CA7
:102A6000495A45004143524F00414C545F484F4C36
:102A700044004155544F00475549444544004C4F8C
:102A8000495445520052544C00434952434C45006E
:102A9000504F534954494F4E004C414E44004F460D
:102AA0005F4C4F49544552004452494654005350DC
:102AB0004F5254004D6F646528257529004F4E0A0A
:102AC00000496E76616C696420636F6D6D616E6440
:102AD0002E2055736167653A20736574203C6E61E2
:102AE0006D653E203C76616C75653E0A00506172F2
:102AF000616D206E6F7420666F756E643A20257369
:102B00000A0056616C7565206F7574206F662072BF
:102B1000616E676520666F72207479706520494E1A
:102B200054380A0056616C7565206F7574206F66A5
:102B30002072616E676520666F72207479706520FF
:102B4000494E5431360A0043616E6E6F74207365CE
:102B50007420706172616D65746572206F66207497
:102B60007970652025642E0A000A275927203D2008
:102B7000666163746F72792072657365742C20616D
:102B80006E79206F74686572206B657920746F2090
:102B900061626F72743A0A000A5265626F6F742044
:102BA000626F617264000A434820362052616E678A
:102BB000657320617265206469766964656420626A
:102BC0007920313030303A205B6C6F772C20686987
:102BD00067685D0A000A54554E453A0A002025648C
:102BE0002C204C6F773A25312E34662C20486967AB
:102BF000683A25312E34660A000A0A526164696F08
:102C00002053657475703A000A4D6F766520616CCB
:102C10006C20636F6E74726F6C7320746F206578B4
:102C20007472656D65732E20456E74657220746FC5
:102C300020736176653A20000A53617665640A0064
:102C40006F6E006F6666000A4F703A5B6F6E2C20E5
:102C50006F66665D0A000A4D6F646520737769745C
:102C6000636820746F20656469742C2061696C65E9
:102C7000726F6E3A2073656C656374206D6F646566
:102C8000732C207275646465723A2053696D706CA0
:102C900065206F6E2F6F66660A000A457261736960
:102CA0006E6720454550524F4D0A00646F6E650AAD
:102CB00000726164696F206E6F742063616C696279
:102CC00072617465640A00636F6D70617373206470
:102CD000697361626C65640A005468697320726587
:102CE000636F7264732074686520696D70616374CA
:102CF000206F6E2074686520636F6D706173732040
:102D00006F662072756E6E696E6720746865206DDF
:102D10006F746F72732E20204D6F746F72732077F3
:102D2000696C6C207370696E210A486F6C64207442
:102D300068726F74746C65206C6F772C2074686592
:102D40006E20726169736520746F206D69642066FE
:102D50006F722035207365632C207468656E207156
:102D60007569636B6C79206261636B20746F206C92
:102D70006F772E0A507265737320616E79206B65D0
:102D80007920746F20657869742E0A0A6D65617305
:102D90007572696E6720636F6D70617373207673EF
:102DA000200043555252454E540A005448524F5445
:102DB000544C450A007468726F74746C65206E6FB1
:102DC00074207A65726F0A00636865636B20636FB5
:102DD0006D706173730A000A496E7465726665727C
:102DE000656E63652061742066756C6C2074687212
:102DF0006F74746C652069732025642525206F66C7
:102E0000206D6167206669656C640A0A0046616925
:102E10006C65642120436F6D70656E736174696FBA
:102E20006E2064697361626C65642E20204469645D
:102E300020796F7520666F7267657420746F2072D9
:102E40006169736520746865207468726F74746C4E
:102E500065206869676820656E6F7567683F0074F4
:102E600068723A2564206375723A25342E326620E2
:102E70006D6F7420783A25342E316620793A2534E6
:102E80002E3166207A3A25342E31662020636F6D0C
:102E90007020783A25342E326620793A25342E3245
:102EA00066207A3A25342E32660A006F6E006F660D
:102EB00066000A4F703A5B6F6E2C6F66665D0A00A3
:102EC000496E697469616C6973696E6720677972AC
:102ED0006F73005365747570204D6F64650A0A0A3C
:102EE000000A215761726E696E672C2072616469F5
:102EF0006F206E6F7420636F6E66696775726564AC
:102F000021000A20547970652027726164696F2757
:102F1000206E6F772E0A0A006D697373696E6720E1
:102F20006C6F6720747970650A00616C6C004154A5
:102F30005449545544455F46415354004154544903
:102F4000545544455F4D45440047505300504D0093
:102F50004354554E004E54554E005243494E00497D
:102F60004D5500434D440043555252454E54005276
:102F7000434F5554004F5054464C4F5700434F4D0C
:102F8000504153530043414D45524100656E6162CB
:102F90006C650064756D70696E6720616C6C0A0009
:102FA000626164206C6F67206E756D6265720A00E5
:102FB0000A41726475436F707465722056332E3106
:102FC0002E350A467265652052414D3A2025750A14
:102FD0000041504D20320025535D200068656C7023
:102FE000006578697400496E76616C696420636F6E
:102FF0006D6D616E642C2074797065202768656C36
:10300000702700436F6D6D616E64733A0020202558
:10301000530A00454550524F4D2066756C6C002593
:10302000733A2025640A0025733A2025640A002596
:10303000733A20256C640A0025733A2025660A003D
:10304000556E6B6E6F776E20636F6E766572736907
:103050006F6E20272553270A0042616420636F6E3C
:1030600076657273696F6E207479706520272553B9
:10307000270A00DCDFE1E3E6E8EBEDEFF2F4F7F935
:10308000FCFE000305080A0C0F111416181B1D2066
:103090002224272C76D888674F0823C1DFAE59B188
:1030A000B796E5E453C63A51997696E6C2842689E6
:1030B0008C9B62407C6FFCBC9C9F40BAA56FA59026
:1030C000055A2A5C936B6C676DC11BE0E40D47F5F4
:1030D00020E6B5D0ED902E009435770080841E0058
:1030E00000204E000000C833333333986E12834102
:1030F000EF8D21893BE655CFFEE6DBD1844B38F7D7
:103100007C1D90A4BBE4243284725E8100C9F1EC82
:10311000A1E53D6E616E00696E66004572726F7268
:103120003A2041505F48414C5F4156523A3A41562D
:1031300052416E616C6F67496E206F7574206F66C7
:10314000206368616E6E656C730D0A0050414E49D4
:10315000433A207363686564756C65723A3A7379B3
:103160007374656D5F696E697469616C697A6564B1
:103170002063616C6C65646D6F7265207468616E4C
:10318000206F6E636500474F494E4720444F574EAE
:1031900020464F522041205245424F4F540D0A00C5
:1031A00050414E49433A2041565253656D61706813
:1031B0006F72653A3A74616B652075736564206659
:1031C000726F6D20696E736964652074696D6572D4
:1031D0002070726F636573730050414E49433A200B
:1031E00053504930207472616E7366657220636F4C
:1031F0006C6C6973696F6E0050414E49433A2053BD
:1032000050493020777269746520636F6C6C697304
:10321000696F6E0001021020200808102040102065
:10322000408002010201080402010102040810208A
:103230004080804020100804020180040201804088
:1032400020100804020108040201010204081020F1
:103250004080010204081020408040050505050754
:103260000508080808020202020A0A080804040401
:10327000040101010101010101030303030303032D
:1032800003040707070C0C0C0C0C0C0C0C020202BC
:103290000206060606060606060B0B0B0B0B0B0BAF
:1032A0000B05000020002300260029002C002F0021
:1032B00032000001000003010601090100002200A4
:1032C000250028002B002E003100340002010000F0
:1032D000050108010B0100002100240027002A003D
:1032E0002D003000330001010000040107010A0134
:1032F000327C8900EDD96877000000590000000099
:1033000000000000D69FDCA81817AA90437327F688
:10331000B968EDF4DED409FEE61C1C84DDE80B99E7
:103320002927D6DF8D210F036418EFEE1EF0B78238
:103330008200941500F37C0000001400988F0000B8
:103340007F6A00000000000000E7B73F3600000081
:1033500000000000AF669ED0385DD36C20B9EB5DF5
:103360007C7C77044C80387486EDCB000000000034
:10337000000000000000000000000000000000004D
:10338000000000B1F10F86DBD0BC54161315860087
:103390004E44BD7F9A15159001EA49B51653A78A88
:1033A000EA00000000000000000000000000000033
:1033B0000000000000000000000400000000000009
:1033C00000000000000000000000000000000000FD
:1033D00000000000000000000000000000000000ED
:1033E000000000000000000000CC31AA2C532E0089
:1033F00024505352463130302C302C333834303056
:103400002C382C312C302A334300245047434D4470
:103410002C31362C302C302C302C302C302A3641AC
:103420000D0A000096000000E1000080250000C0A9
:103430001200004F4B002075626C6F782000204D09
:10344000544B31392000204D544B20002053495219
:10345000462000204E4D454120000100454E41428E
:103460004C450000000000000000000000030000C8
:1034700000803F04015241444955530000000000C0
:103480000000000000000400000048430402414323
:1034900043454C0000000000000000000000000850
:1034A0000000007A4400FF0000000000000000005F
:1034B0000000000000000000000000000000475075
:1034C000565447004750474741004750524D43002C
:1034D00024505542582C34302C6767612C302C31E5
:1034E0002C302C302C302C302A37420D0A245055E9
:1034F00042582C34302C7674672C302C312C302CE4
:10350000302C302C302A37460D0A24505542582C86
:1035100034302C726D632C302C302C302C302C300D
:103520002C302A36370D0A0024504D544B33313499
:103530002C302C302C312C312C302C302C302C30A9
:103540002C302C302C302C302C302C302C302C309B
:103550002C302A32380D0A24504D544B3333302C42
:10356000302A32450D0A24504D544B3331332C311F
:103570002A32450D0A24504D544B3330312C322A17
:1035800032450D0A0024505352463130332C302C32
:10359000302C312C312A32350D0A24505352463109
:1035A00030332C312C302C302C312A32350D0A247A
:1035B000505352463130332C322C302C302C312A9F
:1035C00032360D0A24505352463130332C332C30CE
:1035D0002C302C312A32370D0A24505352463130C8
:1035E000332C342C302C312C312A32300D0A24501B
:1035F0005352463130332C352C302C312C312A3279
:10360000300D0A24505352463130332C362C302C96
:10361000302C312A32320D0A245053524631303385
:103620002C382C302C302C312A32430D0A245053A4
:1036300052463135312C312A33460D0A245053522B
:10364000463130362C32312A30460D0A00A0A20015
:1036500008A60200000000000000A8B0B3A0A2006D
:1036600008A60029010000000000D0B0B3B5620632
:10367000010300010601124F24505542582C3431E9
:103680002C312C303030332C303030312C33383436
:1036900030302C302A32360D0A0050414E49433A20
:1036A0002044617461466C617368205350494465DD
:1036B00076696365447269766572206E6F74206600
:1036C0006F756E640050414E49433A204461746105
:1036D000466C61736820535049446576696365445C
:1036E00072697665722073656D6170686F726520AE
:1036F0006973206E756C6C00554E4B4E2C202575F1
:103700000A0025532C20002564002575002564003F
:10371000257500256C6400256C7500256600252E36
:10372000326600252E326600252E326600252E32A6
:1037300066002573002573002573002C2000464D7C
:10374000542C2025752C2025752C2025532C202524
:10375000532C2025530A00444620706167652C20B5
:103760006C6F672066696C6520232C206C6F672066
:10377000706167653A2025752C090025752C0900B4
:1037800025750A004E6F2064617461666C61736810
:1037900020696E736572746564004D616E75666153
:1037A0006374757265723A20307825303278202043
:1037B000204465766963653A203078253034780A8C
:1037C000004E756D50616765733A20257520205055
:1037D00061676553697A653A2025750A000A4E6F5C
:1037E000206C6F67730A0A000A2575206C6F677377
:1037F0000A004C6F672025752C20202020737461EF
:1038000072742025752C202020656E642025750A91
:103810000004024142535F505245535300000000E0
:10382000000000000C0000000000040354454D504F
:103830000000000000000000000000000008000080
:103840000000000104414C545F4F4646534554006C
:1038500000000000000010000000000000FF000059
:103860000000000000000000000000000000000058
:10387000000000000050414E49433A2041505F4251
:1038800061726F3A3A7265616420756E7375636335
:1038900065737366756C20666F72206D6F7265203C
:1038A0007468616E203530306D7320696E20415030
:1038B0005F4261726F3A3A63616C6962726174650A
:1038C000205B315D0D0A0050414E49433A20415082
:1038D0005F4261726F3A3A7265616420756E73750A
:1038E000636365737366756C20666F72206D6F72AB
:1038F00065207468616E203530306D7320696E20EC
:1039000041505F4261726F3A3A63616C6962726101
:103910007465205B325D0D0A0050414E49433A20E8
:1039200041505F4261726F3A3A7265616420756E10
:103930007375636365737366756C20666F72206D53
:103940006F7265207468616E203530306D73206948
:103950006E2041505F4261726F3A3A63616C6962F6
:1039600072617465205B335D0D0A0050414E49431E
:103970003A2041505F4261726F5F4D5335363131AD
:1039800020646964206E6F74206765742076616CB2
:1039900069642053504920646576696365206472C8
:1039A00069766572210050414E49433A2041505F8B
:1039B0004261726F5F4D5335363131206469642046
:1039C0006E6F74206765742076616C696420535053
:1039D000492073656D617068726F65210050414EBA
:1039E00049433A206661696C656420746F20746194
:1039F0006B65205F7370695F73656D2031303020B7
:103A000074696D657320696E206120726F772C2058
:103A1000696E2041505F4261726F5F4D53353631A0
:103A2000313A3A5F7570646174650050414E4943A4
:103A30003A2041505F4261726F5F4D5335363131EC
:103A400020646964206E6F74206765742076616CF1
:103A50006964204932432073656D617068726F65D7
:103A6000210050414E49433A206661696C656420EB
:103A7000746F2074616B65205F6932635F73656D7D
:103A8000203130302074696D657320696E206120AB
:103A9000726F772C20696E2041505F4261726F5FB8
:103AA0004D53353631313A3A5F7570646174650053
:103AB00050414E49433A2041505F4261726F5F4D21
:103AC00053353631313A204E554C4C20736572696E
:103AD000616C206472697665720050414E49433AC8
:103AE0002041505F4261726F5F4D53353631313A3C
:103AF000206661696C656420746F2074616B652059
:103B000073657269616C2073656D6170686F726551
:103B100020666F7220696E69740050414E49433AC5
:103B20002041505F4261726F5F4D53353631312015
:103B3000746F6F6B206D6F7265207468616E2031D9
:103B40003030306D7320746F20696E697469616CF8
:103B5000697A65004661696C656420746F206765E9
:103B60007420484D43353834332073656D61706877
:103B70006F72650005014F46530000000000000011
:103B800000000000000000170000000000040244D4
:103B9000454300000000000000000000000000009D
:103BA00023000000000001034C4541524E0000007C
:103BB00000000000000000000008000000803F013D
:103BC0000455534500000000000000000000000004
:103BD000000027000000803F01054155544F444537
:103BE00043000000000000000000002800000080EA
:103BF0003F01064D4F5443540000000000000000F8
:103C000000000000A4000000000005074D4F540014
:103C100000000000000000000000000000A50000FF
:103C200000000001084F5249454E540000000000BA
:103C300000000000000016000000000001094558C7
:103C40005445524E414C0000000000000000002985
:103C5000000000000000FF00000000000000000065
:103C600000000000000000000000000000002D0027
:103C7000256C642E2530376C640043757276653A86
:103C800000783A0009793A0009736C6F70653A0060
:103C900043757276653A00783A0009793A000973FB
:103CA0006C6F70653A0043757276653A00783A0039
:103CB00009793A0009736C6F70653A004375727642
:103CC000653A00783A0009793A0009736C6F7065BB
:103CD0003A0043757276653A00783A0009793A00FD
:103CE00009736C6F70653A0043757276653A0078B7
:103CF0003A0009793A0009736C6F70653A00020066
:103D000050524F445543545F4944000000000000A6
:103D10000026000000000005014143435343414C8D
:103D2000000000000000000000002800000000006B
:103D300005024143434F4646530000000000000087
:103D400000000034000000000005034759524F46B0
:103D5000465300000000000000000000400000008A
:103D6000000001044D5055364B5F46494C544552B6
:103D700000000000004C000000000000FF000000F8
:103D80000000000000000000000000000000000033
:103D900000000000496E6974204779726F002A00A4
:103DA0006779726F5B25755D20646964206E6F743E
:103DB00020636F6E76657267653A20646966663D5A
:103DC0002566206470730A00496E6974204163633C
:103DD000656C002A0020006F6E20697473204241D8
:103DE000434B00506C6163652076656869636C6560
:103DF00020255320616E6420707265737320616E9C
:103E000079206B65792E0A004661696C65642074BF
:103E10006F2067657420494E532073616D706C6527
:103E20000A004F6666736574735B25755D3A2025DD
:103E30002E326620252E326620252E32660A005349
:103E400063616C696E675B25755D3A20252E32666D
:103E500020252E326620252E32660A0043616C69C9
:103E600062726174696F6E207375636365737366E4
:103E7000756C0A0043616C6962726174696F6E20CF
:103E80004641494C45440A006C6576656C006F6E8E
:103E900020697473204C4546542073696465006F33
:103EA0006E206974732052494748542073696465D1
:103EB000006E6F736520444F574E006E6F73652020
:103EC0005550004D5055363030303A20556E6162B5
:103ED0006C6520746F206765742073656D61706810
:103EE0006F7265004D5055363030302073746172FA
:103EF000747570206661696C65643A206E6F206429
:103F00006174612072656164790050414E49433AA1
:103F1000206661696C656420746F20626F6F742025
:103F20004D50553630303020352074696D65730042
:103F300050414E49433A2041505F496E6572746961
:103F4000616C53656E736F725F4D50553630303013
:103F50003A3A5F706F6C6C5F64617461206661698E
:103F60006C656420746F2074616B65205350492028
:103F700073656D6170686F72652073796E636872C6
:103F80006F6E6F75736C79004D5055363030303A26
:103F900020556E61626C6520746F206765742073B4
:103FA000656D6170686F7265004661696C6564205B
:103FB000746F20626F6F74204D5055363030302052
:103FC000352074696D65730054696D6564206F7583
:103FD000742077616974696E6720666F72207573EB
:103FE000657220726573706F6E73650004024750CE
:103FF000535F4741494E00000000000000000024CC
:10400000000000803F01034750535F5553450000B7
:1040100000000000000000002C000000803F0404AD
:104020005941575F500000000000000000000000F0
:10403000001C00CDCC4C3E040552505F50000000E7
:10404000000000000000000000002000CDCC4C3E2D
:10405000010657494E445F4D4158000000000000E2
:104060000000002D000000000005085452494D00DA
:104070000000000000000000000000003E00000002
:10408000000001094F5249454E544154494F4E00DA
:1040900000000000002E0000000000040A434F4D05
:1040A000505F42455441000000000000000028001D
:1040B000CDCCCC3D010B4750535F4D494E5341543D
:1040C000530000000000002F000000C040010C471A
:1040D00050535F44454C415900000000000000006F
:1040E00030000000803F00FF0000000000000000E2
:1040F00000000000000000000000000000000004BC
:10410000005000000000000000000000000000005F
:104110000000000000000000040149000000000051
:10412000000000000000000000000004000000008B
:10413000000202494D41580000000000000000004C
:104140000000000008000000000000FF0000000068
:10415000000000000000000000000000000000005F
:1041600000000004005000000000000000000000FB
:1041700000000000000000000000000004014900F1
:10418000000000000000000000000000000000042B
:1041900000000000000402440000000000000000D5
:1041A0000000000000000000080000000000020302
:1041B000494D4158000000000000000000000000D0
:1041C000000C000000000000FF00000000000000E4
:1041D00000000000000000000000000000000000DF
:1041E00002004D494E0000000000000000000000E9
:1041F0000000000A000080894402015452494D0029
:104200000000000000000000000000000C00008022
:10421000BB4402024D4158000000000000000000B5
:1042200000000000000E000080ED440103524556DE
:10423000000000000000000000000000000010006E
:104240000000803F0205445A00000000000000000A
:104250000000000000000011000000000000FF004E
:10426000000000000000000000000000000000004E
:104270000000000000000800000000000000000036
:104280000000000000000000000000E0410000010C
:104290000146554E4354494F4E00000000000000B7
:1042A00000001D000000000000FF000000000000F2
:1042B00000000000000000000000000000000000FE
:1042C0000002015356315F504F53000000000000C0
:1042D000000000006C00000070C202025356325F02
:1042E000504F53000000000000000000006E00006E
:1042F00000704202035356335F504F5300000000DA
:104300000000000000007000000034430204524F1F
:104310004C5F4D415800000000000000000000729A
:104320000000401C4502055049545F4D41580000B3
:104330000000000000000000740000401C45020660
:10434000434F4C5F4D494E0000000000000000004C
:1043500000760000409C440207434F4C5F4D41589B
:1043600000000000000000000000780000C0DA44F7
:104370000208434F4C5F4D4944000000000000001C
:104380000000007A000080BB4402095441494C5FA0
:104390005459504500000000000000007C0000005F
:1043A0000000010A53574153485F545950450000DB
:1043B00000000000007E0000000000020B47595280
:1043C0005F4741494E0000000000000000007F00F0
:1043D0000000AF43010C53565F4D414E00000000FA
:1043E00000000000000000810000000000020D50ED
:1043F00048414E470000000000000000000000009F
:10440000820000000000020E434F4C59415700004B
:104410000000000000000000008400000000000216
:104420000F5253435F534554504F494E54000000C0
:10443000000086000000FA4301105253435F4D4FC5
:1044400044450000000000000000008800000080DB
:104450003F0112464C594241525F4D4F44450000C6
:10446000000000008B000000000002154C414E448B
:104470005F434F4C5F4D494E00000000008C000030
:1044800000000001165253435F52414D505F5449A2
:104490004D450000000089000000803F0117525385
:1044A000435F52554E55505F54494D450000008AB8
:1044B000000000204102185441494C5F53504545CB
:1044C00044000000000000008E000000FA4300FFDE
:1044D00000000000000000000000000000000000DC
:1044E000000000000000000101544352565F454E99
:1044F00041424C4500000000000030000000803FB9
:104500000102544352565F4D494450435400000049
:104510000000003100000050420103544352565F36
:104520004D4158504354000000000000320000008C
:10453000BA4202055350494E5F41524D4544000076
:104540000000000000330000008C4200FF0000006B
:10455000000000000000000000000000000000005B
:104560000000000041505F4D6F746F72733A206617
:1045700061696C656420746F206372656174652085
:104580007468726F74746C6520637572766500016F
:104590000050494E00000000000000000000000034
:1045A0000000000000005041010150494E3200005F
:1045B000000000000000000000000001000000807A
:1045C000BF010250494E330000000000000000000F
:1045D000000000000200000080BF010350494E347B
:1045E00000000000000000000000000000030000C8
:1045F0000080BF00FF00000000000000000000007D
:104600000000000000000000000000000100545203
:104610004947475F54595045000000000000000022
:10462000000000000001014455524154494F4E0022
:104630000000000000000000010000002041020214
:10464000534552564F5F4F4E0000000000000000DF
:104650000002000080A2440203534552564F5F4FB0
:10466000464600000000000000000400008089446D
:10467000040454524947475F444953540000000022
:1046800000000009000000000000FF000000000022
:10469000000000000000000000000000000000001A
:1046A000000001004D4F44450000000000000000E4
:1046B00000000000003600000000000501524554D3
:1046C0005241435400000000000000000000470079
:1046D0000000000005024E45555452414C000000B8
:1046E000000000000000005300000000000503432C
:1046F0004F4E54524F4C00000000000000000000DC
:104700005F00000000000104535441425F524F4CCF
:104710004C00000000000000003300000000000119
:1047200005535441425F54494C54000000000000BE
:1047300000003400000000000106535441425F5065
:10474000414E0000000000000000003500000000A5
:1047500000010752435F494E5F524F4C4C0000002E
:10476000000000003700000000000208414E474DE5
:10477000494E5F524F4C000000000000003A00001C
:10478000A08CC50209414E474D41585F524F4C0025
:104790000000000000003C0000A08C45010A5243CC
:1047A0005F494E5F54494C5400000000000000383F
:1047B0000000000000020B414E474D494E5F544936
:1047C0004C000000000000003E0000A08CC5020C60
:1047D000414E474D41585F54494C000000000000D5
:1047E00000400000A08C45010D52435F494E5F50D0
:1047F000414E0000000000000000390000000000F1
:10480000020E414E474D494E5F50414E00000000A0
:10481000000000420000A08CC5020F414E474D41F0
:10482000585F50414E00000000000000440000A00E
:104830008C4501104A535449434B5F535044000088
:10484000000000000046000000000000FF00000023
:104850000000000000000000000000000000000058
:1048600000000000040154435F585900000000009C
:10487000000000000000001400000020400402546A
:10488000435F5A000000000000000000000000002C
:1048900065000000A04000FF0000000000000000D4
:1048A0000000000000000000000000000000000404
:1048B0000053504545440000000000000000000087
:1048C000000011000000FA430401524144495553CD
:1048D00000000000000000000000001D0000004873
:1048E00043040253504545445F555000000000000A
:1048F00000000000150000007A43040353504545B2
:10490000445F444E00000000000000000019000059
:1049100000164304044C4F49545F5350454544002E
:104920000000000000000D000000FA4304054143B0
:1049300043454C0000000000000000000000002182
:10494000000000C84200FF0000000000000000005E
:104950000000000000000000000000000000969130
:104960008C87827D78736E69645F5A55504B4641DF
:104970003C37322D28231E19140F0A050004090E96
:1049800013181D22272C31363B40454A4F54595E9F
:1049900063686D72777C81868B90959A9FA4A9AE8F
:1049A000B3AFAAA5A09B968F89837E78736E696446
:1049B0005F5A55504B47423E3935302C27231F1B39
:1049C00016120E09050103070B1014191D22262BC0
:1049D0002F34393D42474C51565B60656B70757B97
:1049E00080868C92979DA3A9AFB2ACA6A09A948F13
:1049F000827C76706B65605C57524E4A46413D3909
:104A000036322E2A26221F1B1713100C080401020F
:104A1000060A0E12161A1E22262B2F33383D414647
:104A20004B4F54595E64696F747A80878D949BA252
:104A3000AAB1AEA69F979089826F68635E5955515F
:104A40004D4946423F3C3835322E2B2824211E1A30
:104A50001714100D0A0603000306090D1014181C84
:104A60002024282C3034393D41464A4F54585D6249
:104A7000676D737980878F98A2ACB0A59A90867D78
:104A8000766F55514D4A4744413F3C3A38353331B2
:104A90002E2B292623201D1A1713100D0A07040197
:104AA000010306090D1013171A1E22262A2E32366C
:104AB0003A3E42464A4E53575B5F64696E757C8549
:104AC000909FB2A08D7D7067605A553E3C3A393751
:104AD00036343332302F2E2C2A292724221F1C193A
:104AE0001613100D0A070402000305080A0D10131F
:104AF000161A1D2125292D3135383C4043464A4D93
:104B0000505356595B5E6165696F826D544D4A47DB
:104B10004442403E2E2E2D2C2C2B2A2A2929282790
:104B200026252423211F1C1A1714100D0A0704011F
:104B300001030507090C0E1013161A1D2124282C39
:104B40003033373A3D40424447484A4A4B4A48444A
:104B50003D3019021621282B2D2E2F2E2E06090C42
:104B60000F121517191B1C1B1811040E2231383C8B
:104B70003C3C3A3835322F2B2824201C1915110DB6
:104B800009050102060A0E1115181C1F22252729E6
:104B90002A2B2B2926211911080004080A0A0A08C1
:104BA00007040200030616181A1C1E20211F1712E4
:104BB000516063625F5D5956524E4A46423E3935F6
:104BC000312C2824201B17130E0A060102060A0F97
:104BD00013171B1F23262A2D313437393C3D3F3F05
:104BE0003E3D39352F28211C17151313131416A811
:104BF000ADB2B0ABA6A19C97928D88837E79746F7D
:104C00006A65605B56514C47423D38332E29241F5C
:104C10001A15100B060103080D12171C21262B3044
:104C2000353A3F44494E53585D62676C71767B80DC
:104C3000858A8F94999EA3A800000001FFFFE000E1
:104C4000000000000001FFFFF00000000000000174
:104C5000FFFFF800000000000001FFFFFE00000061
:104C600000000003FFFFFF00000000000003FFFF43
:104C7000FFF000000000000FFFFFFFFE0000000338
:104C8000FFFFFC000007FC00007FFFFFFC000000AE
:104C9000000000001FFFFE0000000000241E191588
:104CA00012100E0C0B0A0909090808080706060568
:104CB00004040403040404000000000000000000D9
:104CC0000027262123252325242722292A2A1C27B9
:104CD000282B33322725222C3331303700000000B7
:104CE0000000000000008011401140713273343325
:104CF0003213121132111293341314535231002112
:104D0000030406080B2D0A090705040241C011C05F
:104D100051125354731211125152731473323100E1
:104D200021020405060708090806070624030201F4
:104D300002000120012011C001110031321374134F
:104D4000143312F112D31251000102232506074633
:104D5000442342210001E0A0313213B43311121177
:104D60000011201100523312133211200122248528
:104D7000042304020342410001E0A0511214131560
:104D800013153413325140012011521332310001F6
:104D90002223040504050423010382612001E0119C
:104DA0008011321354151433323140210201003185
:104DB0007231410223442302012201220102614097
:104DC00001A0118051121413341514331231400113
:104DD0000201030201205211122021224304224128
:104DE000022102A10001E02011405153741332113D
:104DF000402102030203020100111211320011418D
:104E000022232221004102A18001601160110011C2
:104E10003233741312114001620302032131121163
:104E200012114001020102030201000100E121E030
:104E3000A011201211733433312001620362401239
:104E400011121100110100010201220001200100D4
:104E5000E1C0010011801100121113121413345219
:104E60002001E20221203112110011000100210273
:104E700001000140210002410001E06011401112D7
:104E800011131214131413321100212203420102D0
:104E900021000100110012110011200100416001E8
:104EA00000C1000140112001601140511213121382
:104EB000143312310001420322010221000140118A
:104EC00000310011000100010001A0E10001A0017A
:104ED00080112031529312110021C2210021403152
:104EE0000011201100010001E0E16001E01100115A
:104EF000727312310021420301020102202140118C
:104F00000011201160014011600100010221020026
:104F10000120014001A0513213125332112001022D
:104F20000182210021000100110031E00011001177
:104F30006021000102010201010021200100016045
:104F40001100115213121413521100418201020078
:104F5000010021401100110011A0110031001120A9
:104F600081220101000201002100016011005213A1
:104F700012131413323101000201220142010021F7
:104F80000001000111201100112011407100114099
:104F900001022102010201002102210001000100A1
:104FA0001100121112331234133211200102014286
:104FB00001220100410001601120110011001100C7
:104FC00051123120610201220200020102812011EE
:104FD0000012117334133211004102018201006189
:104FE0000001801100110091323140214201020282
:104FF0000062614011521413543331004182012286
:105000000001020041000160911211525120012261
:10501000010301020200826100513354151433313F
:10502000002102012203424102A180319213323158
:105030000041220302010300220322010201401168
:105040001233953331010022010342032221220150
:10505000026100011100115213125312310041225A
:10506000032203002302030201022120321314163B
:1050700015171615331120016203020302032201E2
:10508000A2414011125314131413321101000201F2
:10509000020302030202000223020322212032142F
:1050A0001637181715131211002122030243024369
:1050B0000103020382212011121314153415143236
:1050C0001100016223020300430203420120121374
:1050D0001518193A1715131100210203026304E38E
:1050E00002030203020102401213141517151634AD
:1050F0001220212243020300A322010011121518DD
:105100001C1E1D19161311000201030203042304BF
:105110000324030443042304030203422011121452
:10512000151718361513312102030223020301005B
:10513000454E41424C4500000000000000000000C8
:105140000002000000000001015459504500000019
:1051500000000000000000000000030000004040CC
:105160000102414354494F4E00000000000000007E
:1051700000000004000000803F0403414C545F4DD8
:105180004158000000000000000000000500000081
:10519000C842040452414449555300000000000035
:1051A000000000000009000000164304054D4152B4
:1051B00047494E00000000000000000000000D0004
:1051C0000000004000FF00000000000000000000A0
:1051D000000000000000000000000000000100448A
:1051E000454255470000000000000000000000009C
:1051F00000000000000000FF0000000000000000B0
:10520000000000000000000000000000000000534B
:1052100063686564756C657220736C697020746175
:10522000736B5B25755D202825752F25752F2575DA
:10523000290A005363686564756C6572206F766532
:105240007272756E207461736B5B25755D20282505
:10525000752F2575290A000100524F4C4C000000A3
:105260000000000000000000000000000000803F7F
:1052700001015049544348000000000000000000B4
:1052800000000001000000004001025448524F5449
:10529000544C450000000000000000000300000026
:1052A0004040010359415700000000000000000089
:1052B000000000000002000000804000FF0000002D
:1052C00000000000000000000000000000000000DE
:1052D0000000000001004D4F4E49544F52000000A5
:1052E0000000000000000000000000000001015666
:1052F0004F4C545F50494E00000000000000000079
:105300000100000050410102435552525F50494E86
:105310000000000000000000000200000040410406
:1053200003564F4C545F4D554C5400000000000094
:10533000000003009A9921410404414D505F5045FB
:1053400052564F4C54000000000000070000008837
:10535000410405414D505F4F4646534554000000FF
:10536000000000000B000000000003064341504114
:10537000434954590000000000000000000F0000E5
:10538000404E4500FF00000000000000000000004B
:1053900000000000000000000000000000FF00000E
:1053A00000000000000000000000000000000000FD
:1053B0000000000000494E46494E4954594E414EA6
:1053C000000020410000C84200401C4620BCBE4CEA
:1053D000CA1B0E5AAEC59D74CDCCCC3D0AD7233C1A
:1053E00017B7D13877CC2B329595E6241FB14F0AE9
:1053F0000D94B64A0D941B3A0D9472480D948A464A
:105400000D94AB9E0D94CC270D9448120D9413412E
:105410000D94814D0D94CE650D94AE280D940B4DD9
:105420000D9457280D94FF9B0D94F7340D947F45F0
:105430000D94963E0D9438690D94D2270D941B2738
:105440000D94F1690D94794C0D94CE390D94FF6B48
:105450000D9481600D948B9E0D942A800D940B8D7C
:105460000D9471200D94C7170D9459080D94E05CAC
:105470000D94A8140D943D170D94051C0D94CE7138
:105480000D94232A0D94A79B0D94FE070D94F76E9F
:105490000D94DA5C0D9481A70D94F11C0D94331ECC
:1054A0000D947C8C0D94B1600D94F2570D945D10A9
:1054B0000D94A29C0D94B40C0D943D460D947D2842
:1054C0000D94F0120D94B4280D949DA20D943651B4
:1054D0000D94F0620D94060E0D94C47D0D94F45459
:1054E0000D9459480D94986C0D945B490D9422BD10
:1054F0000D94F06C0D949B1B0D94D85B0D945F1D67
:105500000D9440620D9438A30D94A20D0D94000EDD
:105510000D94CA460D945F350D94E8A30D9434475D
:105520000D94F6460D945D460D942A660D94C7546D
:105530000D947E6A0D949A600D9412280D94E22CBD
:105540000D94CE8C0D94F2AB0D94F42B0D94144F5E
:105550000D9406810D94024E0D945A840D941946B3
:105560000D9467460D94A01D0D94D4650D94950D72
:105570000D9444930D94208E0D94C73D0D94379750
:105580000D9407850D94927F0D9428690D947C18D5
:105590000D944A930D94AF2A0D9427250D940EC9AE
:1055A0000D9457940D94DC280D94900C0D949C6FE1
:1055B0000D945D280D946D080D94F34D0D94DB2929
:1055C0000D94B0620D94B43C0D9455910D94990DC9
:1055D0000D942F0C0D94189B0D94ED450D943D1DCD
:1055E0000D9471680D94E9280D942B420D94D744C5
:1055F0000D9419150D94F3290D943CC70D94BE5CC0
:105600000D944E1D0D947FCA0D94B2140D94CB28A9
:105610000D94F0920D94181D0D94D60B0D9414203A
:105620000D94423B0D9462470D94874D0D94DE1D01
:105630000D944B380D94FC4D0D945B0C0D94FA4D6C
:105640000D946CC70D947E270D948CC70D946C50EF
:105650000D948B1E0D94EC4D0D94EB4D0D94031693
:105660000D94F0680D9407470D9422080D94EA629A
:105670000D9463190D9437C70D946CB80D942000E8
:105680000D944A460D944C830D9475470D94FA245D
:105690000D94F84D0D94722E0D94EB020D94FD2E89
:1056A0000D9488C70D94F94A0D941A690D94C88C0D
:1056B0000D94E3070D94736D0D9472500D94EA12DE
:1056C0000D9403C60D94C4470D94F83C0D94F4C595
:1056D0000D949B940D9404890D94E9910D947D0390
:1056E0000D94071B0D946C1E0D94F6A90D94406B40
:1056F0000D94FE670D9484130D94A6C80D94C20FEB
:105700000D946C430D94D08C0D9426470D948328F2
:105710000D94790E0D94C0180D9457AF0D94DA8D39
:105720000D943E1A0D94AC470D9487600D947E162F
:105730000D949EA30D9408B00D94B4C90D948A6B7A
:105740000D943A820D94DD800D94541F0D94F7A6AC
:105750000D94658C0D94FA270D94C3220D94F929AC
:105760000D9492600D9494090D94754A0D94FD1C4E
:105770000D94CE450D94A68D0D94BD0C0D949F3BBC
:105780000D9469190D94D7460D9488380D9423B360
:105790000D940B1E0D94216E0D9434C80D94ED6A7A
:1057A0000D94E86A0D94AB0D0D943B840D94FB1A97
:1057B0000D94360C0D94D1070D94F54D0D94FF0604
:1057C0000D94A2810D94F8670D9478860D941E4671
:1057D0000D94E3110D94D6470D94EF4D0D9411B92E
:1057E0000D94DE5B0D946B200D9489310D94032490
:1057F0000D94EF910D94BD680D9405C60D94561B44
:105800000D94114D0D94F96B0D9448B50D94831DB5
:105810000D9408C90D94A2600D944B360D944A0C5A
:105820000D946EBD0D9461340D940B1C0D94C51D2B
:105830000D94DA070D94BA0D0D94BE000D94344802
:105840000D94762E0D94A36B0D94EC7A0D949245E5
:105850000D94181E0D948F310D94C31F0D94A194B7
:105860000D946A020D94CC5C0D94C3680D94BD1F19
:105870000D94FD750D943C210D94D18E0D94DC0B8F
:105880000D947E860D94A0420D94F3C10D94C045F5
:105890000D9495410D9445C60D9440BF0D94C18F54
:1058A0000D94662A0D94251D0D944E1E0D941A48D4
:1058B0000D9487C80D94FB0F0D947C2E0D94190642
:1058C0000D940C0E0D94C6180D948B070D943F0C7F
:1058D0000D940A620D9430280D946C7B0D943C510C
:1058E0000D94F4270D94DF0D0D9447D00D94EC57D3
:1058F0000D94EF470D94FC6A0D94F6450D94E94E16
:105900000D9444670D94444B0D9496800D94B17C96
:105910000D94742E0D94A7470D94CD240D94FB7B0C
:105920000D948A1A0D9438C80D9423280D94F01301
:105930000D948F150D94C12F0D94D7680D94984C2C
:105940000D9424660D9473450D94CC0D0D940E8129
:105950000D9497450D9402960D948D720D94F72E2B
:105960000D94652E0D948A130D944F810D94C36B85
:105970000D942E9A0D945F0D0D9491070D944B4844
:105980000D94381A0D9451A50D9450C70D9484169A
:105990000D9479120D949B750D946AC70D94AB1CF0
:1059A0000D949D460D94FC0D0D944E1F0D94B14722
:1059B0000D9438120D948C480D9488060D9452B6AF
:1059C0000D9402480D94C78F0D9468C80D94ED4D49
:1059D0000D94924C0D943E690D94EC070D94C72FD5
:1059E0000D94697D0D9429900D94F6080D9485BE53
:1059F0000D940FAB0D9463230D94EB690D94431735
:105A00000D94786A0D94DC0C0D942EB70D945921E9
:105A10000D94378F0D9444340D9409160D94140988
:105A20000D94846B0D94E0470D946D0C0D948AC712
:105A30000D9487420D94FA540D94E7290D94CF8C60
:105A40000D94F26A0D942FC80D9456B30D94BDB702
:105A50000D9473120D94A0C80D94F14D0D944EC782
:105A60000D9436220D94C2210D94C4000D94C948A2
:105A70000D94F3600D940E4F04BF7BE231EB4BEFBE
:105A80004EEF23F0B02C11241FBECFEFD1E2DEBFCA
:105A9000CDBF00E00CBF16E0A0E0B2E0EEE6FBEA0E
:105AA00003E00BBF02C007900D92AE37B107D9F7E4
:105AB00018E1AEE7B6E001C01D92AA3CB107E1F7DC
:105AC0001AE5C6E8DAE500E006C022970109FE0102
:105AD0000BBF0F94B9D1C837D10780E00807A9F7E9
